{
  "contractName": "GameStore",
  "abi": [
    {
      "anonymous": false,
      "inputs": [
        {
          "indexed": false,
          "internalType": "uint256",
          "name": "id",
          "type": "uint256"
        },
        {
          "indexed": false,
          "internalType": "string",
          "name": "title",
          "type": "string"
        },
        {
          "indexed": false,
          "internalType": "uint256",
          "name": "year",
          "type": "uint256"
        },
        {
          "indexed": false,
          "internalType": "uint256",
          "name": "price",
          "type": "uint256"
        },
        {
          "indexed": false,
          "internalType": "address payable",
          "name": "storeId",
          "type": "address"
        },
        {
          "indexed": false,
          "internalType": "uint256",
          "name": "ownedCount",
          "type": "uint256"
        }
      ],
      "name": "gameCreated",
      "type": "event"
    },
    {
      "anonymous": false,
      "inputs": [
        {
          "indexed": false,
          "internalType": "uint256",
          "name": "id",
          "type": "uint256"
        },
        {
          "indexed": false,
          "internalType": "string",
          "name": "title",
          "type": "string"
        },
        {
          "indexed": false,
          "internalType": "uint256",
          "name": "year",
          "type": "uint256"
        },
        {
          "indexed": false,
          "internalType": "uint256",
          "name": "price",
          "type": "uint256"
        },
        {
          "indexed": false,
          "internalType": "address payable",
          "name": "storeId",
          "type": "address"
        },
        {
          "indexed": false,
          "internalType": "uint256",
          "name": "ownedCount",
          "type": "uint256"
        }
      ],
      "name": "gameOwned",
      "type": "event"
    },
    {
      "constant": true,
      "inputs": [],
      "name": "gameCount",
      "outputs": [
        {
          "internalType": "uint256",
          "name": "",
          "type": "uint256"
        }
      ],
      "payable": false,
      "stateMutability": "view",
      "type": "function"
    },
    {
      "constant": true,
      "inputs": [
        {
          "internalType": "uint256",
          "name": "",
          "type": "uint256"
        }
      ],
      "name": "games",
      "outputs": [
        {
          "internalType": "uint256",
          "name": "id",
          "type": "uint256"
        },
        {
          "internalType": "string",
          "name": "title",
          "type": "string"
        },
        {
          "internalType": "uint256",
          "name": "year",
          "type": "uint256"
        },
        {
          "internalType": "uint256",
          "name": "price",
          "type": "uint256"
        },
        {
          "internalType": "address payable",
          "name": "storeId",
          "type": "address"
        },
        {
          "internalType": "uint256",
          "name": "ownedCount",
          "type": "uint256"
        }
      ],
      "payable": false,
      "stateMutability": "view",
      "type": "function"
    },
    {
      "constant": false,
      "inputs": [
        {
          "internalType": "string",
          "name": "_title",
          "type": "string"
        },
        {
          "internalType": "uint256",
          "name": "_year",
          "type": "uint256"
        },
        {
          "internalType": "uint256",
          "name": "_price",
          "type": "uint256"
        }
      ],
      "name": "createGame",
      "outputs": [],
      "payable": false,
      "stateMutability": "nonpayable",
      "type": "function"
    },
    {
      "constant": false,
      "inputs": [
        {
          "internalType": "uint256",
          "name": "_id",
          "type": "uint256"
        }
      ],
      "name": "payment",
      "outputs": [],
      "payable": true,
      "stateMutability": "payable",
      "type": "function"
    }
  ],
  "bytecode": "0x60806040526000805534801561001457600080fd5b50610800806100246000396000f3fe60806040526004361061003f5760003560e01c80630b6d715b14610044578063117a5b90146100fe5780634d1975b4146101d55780638b3c99e3146101fc575b600080fd5b34801561005057600080fd5b506100fc6004803603606081101561006757600080fd5b81019060208101813564010000000081111561008257600080fd5b82018360208201111561009457600080fd5b803590602001918460018302840111640100000000831117156100b657600080fd5b91908080601f0160208091040260200160405190810160405280939291908181526020018383808284376000920191909152509295505082359350505060200135610219565b005b34801561010a57600080fd5b506101286004803603602081101561012157600080fd5b50356103b2565b6040518087815260200180602001868152602001858152602001846001600160a01b03166001600160a01b03168152602001838152602001828103825287818151815260200191508051906020019080838360005b8381101561019557818101518382015260200161017d565b50505050905090810190601f1680156101c25780820380516001836020036101000a031916815260200191505b5097505050505050505060405180910390f35b3480156101e157600080fd5b506101ea61047d565b60408051918252519081900360200190f35b6100fc6004803603602081101561021257600080fd5b5035610483565b600083511161022757600080fd5b6000805460019081018083556040805160c08101825282815260208082018981528284018990526060830188905233608084015260a083018790529386528481529190942084518155915180519293610288939085019291909101906106f1565b50604082015181600201556060820151816003015560808201518160040160006101000a8154816001600160a01b0302191690836001600160a01b0316021790555060a082015181600501559050507faf10643c60597c16c4488bd0dfc77b496bb7fe082567242d8153fc7ab52a1a0a6000548484843360006040518087815260200180602001868152602001858152602001846001600160a01b03166001600160a01b03168152602001838152602001828103825287818151815260200191508051906020019080838360005b8381101561036e578181015183820152602001610356565b50505050905090810190601f16801561039b5780820380516001836020036101000a031916815260200191505b5097505050505050505060405180910390a1505050565b600160208181526000928352604092839020805481840180548651600296821615610100026000190190911695909504601f8101859004850286018501909652858552909491939290919083018282801561044e5780601f106104235761010080835404028352916020019161044e565b820191906000526020600020905b81548152906001019060200180831161043157829003601f168201915b505050600284015460038501546004860154600590960154949591949093506001600160a01b03909116915086565b60005481565b60008111801561049557506000548111155b61049e57600080fd5b6104a661076f565b600082815260016020818152604092839020835160c0810185528154815281840180548651600296821615610100026000190190911695909504601f8101859004850286018501909652858552909491938584019390929083018282801561054f5780601f106105245761010080835404028352916020019161054f565b820191906000526020600020905b81548152906001019060200180831161053257829003601f168201915b505050918352505060028201546020820152600382015460408083019190915260048301546001600160a01b03908116606084015260059093015460809283015290830151905192935091908216903480156108fc02916000818181858888f193505050501580156105c5573d6000803e3d6000fd5b5060a082018051600190810190915260008481526020828152604090912084518155818501518051869492936105ff9385019201906106f1565b50604082015181600201556060820151816003015560808201518160040160006101000a8154816001600160a01b0302191690836001600160a01b0316021790555060a082015181600501559050507f4fafe525677c9d4a9ddff6d5c7ee131837ac944599ecb1287a9d8531211b6e0f83836020015184604001518560600151858760a001516040518087815260200180602001868152602001858152602001846001600160a01b03166001600160a01b03168152602001838152602001828103825287818151815260200191508051906020019080838360008381101561036e578181015183820152602001610356565b828054600181600116156101000203166002900490600052602060002090601f016020900481019282601f1061073257805160ff191683800117855561075f565b8280016001018555821561075f579182015b8281111561075f578251825591602001919060010190610744565b5061076b9291506107ae565b5090565b6040518060c001604052806000815260200160608152602001600081526020016000815260200160006001600160a01b03168152602001600081525090565b6107c891905b8082111561076b57600081556001016107b4565b9056fea265627a7a7231582035ac3befe4c8d366038f847d571afedad6d2e6266d01be8d917b68bfbd19969264736f6c63430005100032",
  "source": "// SPDX-License-Identifier: GPL\npragma solidity >0.5.0;\n\ncontract GameStore {\n    uint256 public gameCount = 0;\n    mapping(uint256 => Game) public games;\n\n    // struktur data game\n    struct Game {\n        uint256 id;\n        string title;\n        uint256 year;\n        uint256 price;\n        address payable storeId;\n        uint256 ownedCount;\n    }\n\n    event gameCreated(\n        uint256 id,\n        string title,\n        uint256 year,\n        uint256 price,\n        address payable storeId,\n        uint256 ownedCount\n    );\n\n    event gameOwned(\n        uint256 id,\n        string title,\n        uint256 year,\n        uint256 price,\n        address payable storeId,\n        uint256 ownedCount\n    );\n\n    // Create game\n    function createGame(\n        string memory _title,\n        uint256 _year,\n        uint256 _price\n    ) public {\n        // Restrict\n        require(bytes(_title).length > 0);\n        gameCount += 1;\n        games[gameCount] = Game(\n            gameCount,\n            _title,\n            _year,\n            _price,\n            msg.sender,\n            0\n        );\n\n        // trigger\n        emit gameCreated(gameCount, _title, _year, _price, msg.sender, 0);\n    }\n\n    // constructor() public {\n    //     createGame(\"Elder Scroll VI\", 2024, 700000, address(0x0));\n    // }\n\n    // function createGame(\n    //     string memory _title,\n    //     uint256 _year,\n    //     uint256 _price,\n    //     address payable _storeId\n    // ) public {\n    //     gameCount++;\n    //     games[gameCount] = Game(gameCount, _title, _year, _price, _storeId);\n    // }\n\n    // Payment\n    function payment(uint256 _id) public payable {\n        // Restrict\n        require(_id > 0 && _id <= gameCount);\n\n        // Fetch game\n        Game memory _game = games[_id];\n        // uint256 _price = _game.price;\n        address payable _storeId = _game.storeId;\n\n        // Transfer eth\n        // address(_storeId).transfer(_price);\n        address(_storeId).transfer(msg.value);\n\n        // Update game owned\n        _game.ownedCount += 1;\n        games[_id] = _game;\n\n        // Trigger\n        emit gameOwned(\n            _id,\n            _game.title,\n            _game.year,\n            _game.price,\n            _storeId,\n            _game.ownedCount\n        );\n    }\n}\n",
  "sourcePath": "/home/adinatha/Documents/Programming/Website/eth-gamestore/src/contracts/GameStore.sol",
  "compiler": {
    "name": "solc",
    "version": "0.5.16+commit.9c3226ce.Emscripten.clang"
  },
  "schemaVersion": "3.4.1",
  "updatedAt": "2021-07-08T23:25:20.357Z",
  "networkType": "ethereum",
  "devdoc": {
    "methods": {}
  },
  "userdoc": {
    "methods": {}
  }
}